:020000040800F2
:10000000280A0020290200088B2D0008BD240008C2
:10001000892D00081F0400081935000800000000A1
:100020000000000000000000000000003D2F00085C
:100030009D04000800000000DD2D00083F2F00088F
:10004000430200084302000843020008430200087C
:10005000430200084302000843020008430200086C
:10006000430200084302000843020008430200085C
:10007000430200084302000843020008430200084C
:100080004302000843020008430200086904000814
:100090005D04000843020008430200084302000810
:1000A000430200084302000843020008430200081C
:1000B000430200084302000843020008430200080C
:1000C00043020008430200084302000843020008FC
:1000D00043020008430200080D35000843020008EF
:1000E00043020008430200084302000843020008DC
:1000F00043020008430200084302000843020008CC
:1001000043020008430200084302000843020008BB
:100110004302000843020008ED2F000843020008D4
:10012000430200084302000843020008430200089B
:100130004302000800000000000000004302000825
:10014000430200084302000843020008430200087B
:10015000430200084302000843020008430200086B
:10016000430200084302000843020008430200085B
:1001700043020008430200080000000000000000E5
:10018000430200084302000800F002F800F03CF8C7
:100190000AA090E8000C82448344AAF10107DA45E2
:1001A00001D100F031F8AFF2090EBAE80F0013F0F8
:1001B000010F18BFFB1A43F0010318474438000031
:1001C00064380000103A24BF78C878C1FAD85207C2
:1001D00024BF30C830C144BF04680C6070470000C1
:1001E0000023002400250026103A28BF78C1FBD840
:1001F000520728BF30C148BF0B6070471FB503F0DE
:10020000EDFB1FBD10B510BD00F0CFF81146FFF794
:10021000F5FF03F023FA00F0EDF803B4FFF7F2FF67
:1002200003BC00F0F5F80000094880470948004782
:10023000FEE7FEE7FEE7FEE7FEE7FEE7FEE7FEE796
:10024000FEE7FEE704480549054A064B70470000F3
:10025000DD2F00088901000828040020280A00205A
:10026000280600202806002053EA020C00F06980CE
:100270002DE9F04B4FF00006002B1FBFB3FA83F5BA
:1002800003FA05F424FA05F65E4012BF1643B2FAEB
:1002900082F502FA05F4C5F120051EBF22FA05FC1D
:1002A00044EA0C04203556EA044C4FEA144418BFC3
:1002B000641C4FF000084FF00009904271EB030CF2
:1002C00039D3002919BFB1FA81F701FA07F6B0FA5C
:1002D00080F700FA07F6C7F120071EBF20FA07FCD7
:1002E00046EA0C062037B6FBF4FCA7EB0507103FE7
:1002F00007F01F0BCBF120060CFA0BFB2CFA06F6CD
:1003000044BFB3460026202FA4BF5E464FF0000B2B
:100310005BEA060C08BF4FF0010B19EB0B09ABFBB6
:10032000027C48EB0608C01B06FB02CC0BFB03CC8F
:1003300071EB0C01C1E70B46024641464846BDE859
:10034000F08B13B54FF000004FF00001AFF30080C9
:10035000BDE81C4070474FF0000200B513469446BC
:100360009646203922BFA0E80C50A0E80C50B1F10D
:100370002001BFF4F7AF090728BFA0E80C5048BF21
:100380000CC05DF804EB890028BF40F8042B08BFBF
:10039000704748BF20F8022B11F0804F18BF00F8BB
:1003A000012B7047704770477047754600F02CF876
:1003B000AE4605006946534620F00700854618B052
:1003C00020B5FFF73FFFBDE820404FF000064FF09B
:1003D00000074FF000084FF0000B21F00701AC467A
:1003E000ACE8C009ACE8C009ACE8C009ACE8C00999
:1003F0008D46704710B50446AFF300802046BDE837
:100400001040FFF70ABF000000487047C8030020F3
:1004100001491820ABBEFEE7260002007047FEE748
:1004200000B58BB00020012103900490CDE90601B6
:10043000CDE90810059000900190029069460648A9
:1004400000F0B0F8044800F0ADFB0321024800F0D2
:1004500028F80BB000BD00002C000020014800F07F
:100460009CB900002C000020014800F096B9000063
:100470002C00002008B5084B0A46074918600020E8
:1004800058609860D860082018616B46A1F1280078
:1004900000F019F808BD000054000020704772B643
:1004A000FEE790F82020012A07D0022A05D0416AF1
:1004B00041F48021416201207047006842690A438B
:1004C000426100207047F0B590F820500468A4689D
:1004D000012D05D0022D03D0416A41F480215DE059
:1004E00014F0406F01D1E50055D5C4F30164022C2E
:1004F00003D9416A41F4000150E00125A5401D6087
:100500008D684FF4C0739DB1CE6835434E6845EA9F
:10051000C605066803EB0417F5514FF4C27507686A
:1005200005EB04150E697E51097D012905D009E00E
:100530000E88CD6845EA4655EBE701684E5946F40A
:1005400080764E511179D579567941EA05619579D0
:100550002D0445EA062529434FF4C676056806EBC7
:100560000416A9511178D57841EA05619578527839
:100570002D0445EA022211434FF4C475026805EBCD
:1005800004155151006803EB0411425842F0010276
:1005900042500020F0BD416A41F400114162012047
:1005A000F0BD000010B590F82020012A07D0022AE3
:1005B00005D0416A41F480214162012010BD3B48D1
:1005C000D0F8002242F00102C0F80022D0F8002248
:1005D00022F47C52C0F80022D0F800224B6A42EA92
:1005E0000322C0F800220A7D02F01F0301229A4074
:1005F000D0F81C329343C0F81C32CB69B3B9D0F8A1
:100600000C329343C0F80C328C894B6864F31F435F
:100610004C6900EBC404C4F840320C890B6864F3E5
:100620001F434C6900EBC404C4F84432CB69012B6E
:1006300016D1D0F80C321343C0F80C320C884B683A
:1006400064F31F434C6900EBC404C4F840320C89C6
:10065000CB6864F31F434C6900EBC404C4F8443214
:100660008B69002BD0F804320ED01343C0F804324B
:100670000B69002BD0F8143208D01343C0F81432A1
:10068000096A012904D008E09343EFE79343F5E7B3
:10069000D0F81C121143C0F81C12D0F8001221F03F
:1006A0000101C0F80012002010BD000000640040ED
:1006B000704730B590F82040012C05D0022C03D0B3
:1006C000416A41F480215DE00468002955D0246925
:1006D000A40754D04FF4D874056804EB01142D59C5
:1006E00015F00405956005682D594ED0ED0855604C
:1006F00005682C5904F00204D4604FF4DA740568DC
:1007000004EB01142D5905F00F05156105682D59ED
:10071000C5F30725956105682C59240C54614FF4E5
:10072000DC72046802EB0112A4581C700468A4581F
:10073000240A5C700468A458240C9C700468A258B5
:10074000120EDA704FF4DE72046802EB0112A45844
:100750001C710468A458240A5C710468A458240C11
:100760009C710468A258120EDA71006881B10169A7
:1007700041F020010161002030BDE468A8E7416A32
:1007800041F400114162012030BD6D0D1560AFE7ED
:10079000C16841F02001C160EDE72DE9F05F054639
:1007A000006800244669D0F804908768D0F80CB03F
:1007B000D0F810A0D0F81880F10748D0F90714D06D
:1007C00001218160B80703D5284600F018FA0CE033
:1007D000780702D54FF4006407E0380702D54FF4DC
:1007E000805402E0284600F009FAF80516D5296879
:1007F0004FF480708860B80503D5284600F001FAF0
:100800000CE0780502D544F4005407E0380502D521
:1008100044F4804402E0284600F0F2F9F80316D5CB
:1008200029684FF480308860B80303D5284600F06B
:10083000EAF90CE0780302D544F4004407E03803F9
:1008400002D544F4803402E0284600F0DBF930079A
:1008500007D55FEACB6004D52968102044F4007402
:10086000C86070074FF0080707D55FEA0B7004D522
:100870002868C760284600F061F9B00706D52868E7
:10088000C068800702D0284600F05AF9700607D5E4
:100890005FEACA6004D52968102044F480640861C6
:1008A000B00607D55FEA0A7004D5286807612846B4
:1008B00000F074F9F00606D528680069800702D0B8
:1008C000284600F06CF9B00308D55FEAC96005D589
:1008D000296810204860284600F062F9F00307D527
:1008E0005FEA097004D528684760284600F08CF953
:1008F000300446D55FEA497040D5F00504D55FEA7B
:10090000C87001D044F00104B00504D55FEA8870D6
:1009100001D544F00204700504D55FEA487001D5A2
:1009200044F00404300529D518F0700F26D008F0E3
:100930007000402815D006DC102809D020280AD0E5
:10094000302816D10AE050280ED0602811D10EE0D0
:1009500044F008040DE044F010040AE044F02004E0
:1009600007E044F0400404E044F0800401E044F473
:1009700080742868816921F07001816129680420F0
:100980004860002C05D0686A204368622846FFF75B
:100990008FFEBDE8F09F70B5040003D094F82000EE
:1009A00010B104E0012070BD204600F081F82068FD
:1009B000016841F00101016000F092FA0546052648
:1009C00004E000F08DFA401B0A2811D82068406826
:1009D000C007F6D02068016821F00201016000F034
:1009E0007FFA05460BE000F07BFA401B0A2806D987
:1009F000606A40F40030606284F82060D2E72068CA
:100A000040688007EFD4207E0128206801683DD02F
:100A100021F080010160607E01282068016838D0E3
:100A200021F040010160A07E01282068016833D0D8
:100A300021F020010160E07E0128206801682ED0AD
:100A400041F010010160207F01282068016829D051
:100A500021F008010160607F01282068016824D02E
:100A600021F004010160D4E902010843D4E9041231
:100A7000114308436168491E08432168C86100208A
:100A80006062012084F82000002070BD41F08001E8
:100A9000C0E741F04001C5E741F02001CAE721F07D
:100AA0001001CFE741F00801D4E741F00401D9E794
:100AB00010B586B0044614216846FFF74CFC1C496B
:100AC0002068884231D11B480021026842F0007240
:100AD0000260006800F00070059016481038026847
:100AE00042F001020260006800F0010005904FF43E
:100AF000C05000900220CDE901010320039009209D
:100B0000049069460C4800F0EDF8002211461320CD
:100B100000F0ECFC132000F0DBFC00221146142056
:100B200000F0E4FC142000F0D3FC06B010BD00007F
:100B3000006400404038024000000240704700005E
:100B400030B589B0054602F085FD04461249286893
:100B500088421ED107AB6A4600212846FFF7A9FD4F
:100B60000098B0F5047F14D19DF81C00642110FB9F
:100B700001F0A4F89401BDF81D0040BAA4F8920158
:100B8000BDF81F0040BAA4F88C019DF8210084F83C
:100B9000960109B030BD0000006400407047704706
:100BA0007047000070B5044690F82000012804D07A
:100BB000606A40F40020606218E0022084F820009F
:100BC0002068016821F00101016000F089F9054603
:100BD0000EE000BF00F084F9401B0A2808D9606AC3
:100BE00040F400306062052084F82000012070BDD0
:100BF00020684068C007EDD1606270BD70477047E3
:100C0000704770477047704770472DE9F0410446C0
:100C1000876D00F065F9064694F835000025022836
:100C200006D08020606584F834500120BDE8F08152
:100C30002068016821F0160101602068416921F0F7
:100C400080014161206C08B9A06C20B12068016866
:100C500021F0080101602068016821F001010160B4
:100C60000CE000F03DF9801B052807D920206065C5
:100C7000032084F8350084F83450D7E720680068F2
:100C8000C007EED194F85C103F208840B860012086
:100C900084F8350084F834500020C7E790F8351008
:100CA000022903D08021416501207047052180F889
:100CB00035100068016821F00101016000207047D3
:100CC00070B5044600F00CF90546601C02D00448DB
:100CD0000078044400F004F9401BA042FAD370BD30
:100CE000040000202DE9F84FDFF8BCA10022012507
:100CF00003264FF00F090AF1040BAAF1040E00BFFE
:100D00000B6805FA02F42340A34270D10F7907F073
:100D10000307012F01D0022F16D187684FEA42083E
:100D200006FA08FC27EA0C07D1F80CC00CFA08FCFC
:100D30004CEA070CC0F808C04768A7430C79C4F315
:100D4000001494403C4344600C79E443A4070AD067
:100D5000C4684FEA420C06FA0CF7BC438F6807FAE6
:100D60000CF72743C7600C7904F00304022C12D15E
:100D7000D40800EB840CDCF820405707FF0E09FA7A
:100D800007F824EA0804D1F8108008FA07F848EABE
:100D90000408CCF8208004684FEA420C06FA0CF7ED
:100DA000BC430F7907F0030707FA0CF727430760E6
:100DB0004C6814F4403F70D03C4C276847F480479F
:100DC0002760246822F0030704F480440094384C20
:100DD00007EB040CDCF8084897074FEA177809FA84
:100DE00008F7BC43334FB84202D1002724E054E057
:100DF000314FB84201D101271EE0304FB84201D136
:100E0000022719E02E4FB84201D1032714E02D4FDD
:100E1000B84201D104270FE02B4FB84201D105277A
:100E20000AE02A4FB84201D1062705E0284FB84210
:100E300001D1072700E0082707FA08F72743CCF875
:100E40000878DAF800405746D1F804C09C435FEABE
:100E5000CC2C00D51C433C60DBF800405F46D1F849
:100E600004C09C435FEA8C2C00D51C433C60DEF838
:100E700000407746D1F804C09C435FEA8C3C00D523
:100E80001C433C60084F083F3C68D1F804C09C43B9
:100E90005FEACC3C00D51C433C60521C102AFFF496
:100EA0002FAFBDE8F88F0000083C014044380240F5
:100EB00000300140000002400004024000080240EF
:100EC000000C0240001002400014024000180240D2
:100ED000001C02400AB1816170470904FBE7000071
:100EE00001488068704700000400002070B50400CD
:100EF00025D094F83D00002520B984F83C502046C8
:100F000000F03EFA242084F83D002068016821F0BA
:100F1000010101602068016841F40041016020681E
:100F2000016821F40041016000F0ACFB4D4A6168AA
:100F3000914201D84C4900E04C49884201D201203D
:100F400070BD4B492368B0FBF1F15E6826F03F06A7
:100F50000E435E606368934206D94FF4967359431B
:100F60004FF47A73B1FBF3F12368491C1E6A26F033
:100F70003F06314319626168914210D84900401E12
:100F8000B0FBF1F2521CC2F30B02042A01D204207E
:100F900022E0B0FBF1F0401CC0F30B001CE0A268A3
:100FA000F2B301EBC10303EB0116431EB3FBF6F3EF
:100FB0005B1C43F480431B0549D092B301EBC10293
:100FC00002EB0111401EB0FBF1F0401CC0F30B001E
:100FD00040F4804040F400402168CA694CF6FF7339
:100FE0009A431043C861D4E907100143206802689E
:100FF00022F0C00211430160D4E9030101432068DB
:10100000826848F2FF339A4311438160D4E90501B5
:1010100008432168CA6822F0FF021043C86001E05B
:101020000EE016E02068016841F0010101602564CE
:10103000202084F83D00256384F83E50002070BDD8
:1010400001EB4106431EB3FBF6F35B1CB3E7012043
:10105000C2E701EB4101401EB0FBF1F0401CC0F3C0
:101060000B00B7E7A086010080841E0000093D0048
:1010700040420F002DE9F84F1F4690468A4604462D
:10108000DDF82890FFF72CFF054694F83D00202856
:1010900075D1192301226C492046009501F010FBFF
:1010A0000028F5D194F83C00012868D0012084F88C
:1010B0003C0020680168C90703D1016841F00101C3
:1010C00001602068016821F400610160222084F839
:1010D0003D00102084F83E0000262664C4F82480D9
:1010E0006785608D20855948E0622B464A46514607
:1010F000204601F0FBF9002878D1208D544F68B1CB
:10110000012814D002282068016816D041F48061BB
:101110000160206841698069009087E0206841692A
:1011200081690091016841F4007101607EE02068EE
:10113000016821F480610160F0E721F480610160C1
:101140002068016841F40061E2E7032848D80128DB
:101150000AD0022814D04B4600223946204600957A
:1011600001F0AEFAD8BB27E02A464946204601F0F6
:1011700026FBA0BB20680069616A08704DE061E051
:101180004B46002239462046009501F099FA30BBC3
:101190002068016841F40071016020680069616A9B
:1011A0000870606A401C6062218D491E2185618D36
:1011B000491E618521682EE02068016821F4806164
:1011C000016020680069616A0870606A401C6062A2
:1011D000208D401E2085608D401E6085D0E705E093
:1011E0002A464946204601F0EAFA10B10120BDE83E
:1011F000F88F20680069616A0870606A401C60624C
:10120000218D491E2185618D491E618521684A69AC
:10121000D24352070AD409690170606A401C6062B7
:10122000208D401E2085608D401E6085208D002809
:101230008BD1202084F83D0084F83E6084F83C6027
:101240000020D4E70220D2E7020010000000FFFFD8
:10125000040001002DE9F84F1F4690468A460446D7
:10126000DDF82890FFF73CFE054694F83D00202865
:101270007FD11923012240492046009501F020FA30
:10128000002876D194F83C00012872D0012084F81F
:101290003C0020680168C90703D1016841F00101E1
:1012A00001602068016821F400610160212084F858
:1012B0003D00102084F83E0000262664C4F82480F7
:1012C0006785608D20852D48E0622B464A46514651
:1012D000204601F081F990B9206841698069009049
:1012E00036E02A464946204601F09CFA50B1206C6F
:1012F000042804D12068016841F4007101600120D4
:10130000BDE8F88F606A216800780861606A401C57
:101310006062618D491E6185218D491E89B22185DA
:1013200022685369DB435B070BD451B1007810612D
:10133000606A401C6062608D401E6085208D401E8A
:1013400020852A464946204601F094F90028CED14E
:10135000208D0028C5D154F83D0B016841F400717F
:101360000160202004F81E09E67766770020C7E7B1
:10137000FFE70220C4E70000020010000000FFFFAA
:10138000F0B587B0044614216846FEF7E4FF204913
:10139000DFF878C0276800231D4A1039122403257E
:1013A00004261C48674511D1176847F400171760D9
:1013B000126802F4001205920A6842F002020A6002
:1013C000096801F002010591C02115E0DFF848C06D
:1013D000674519D1176847F480071760126802F44F
:1013E000800205920A6842F002020A60096801F070
:1013F000020105914FF44061CDE9001402AF694646
:1014000087E86800FFF76EFC07B0F0BD00540040AD
:101410004038024000040240005800400248816801
:101420000278114481607047040000200B4810B519
:10143000016841F400710160016841F4806101605C
:10144000016841F480710160032000F06FF80F2003
:1014500000F006F800F024F8002010BD003C024027
:1014600070B50D4D04464FF47A712878B1FBF0F059
:101470000A490968B1FBF0F000F00CFB48B9102CE8
:1014800007D200222146501E00F030F800206C6088
:1014900070BD012070BD000004000020100000207D
:1014A0000A4808B5016841F480410160006800F411
:1014B000804000900548001F016841F080510160A4
:1014C000006800F08050009008BD000044380240E1
:1014D000002809DB00F01F02012191404009800033
:1014E00000F1E020C0F8001170470000F0B40E4B8E
:1014F0001B680C46C3F30223C3F10705042D00D972
:101500000425191D072901D2002300E0DB1E012656
:1015100006FA05F1491E214099409E40761E16406C
:101520003143F0BC01F0F9BF0CED00E0064900F0DA
:10153000070208684FF6FF03184040EA0220034AFA
:1015400010430860704700000CED00E00000FA0551
:101550002DE9F0470E46050065D0DFF81481D8F874
:101560000000F7B200F00700B04207D288F8007020
:10157000D8F8000000F00700B04254D128683D4C74
:10158000810712D5400703D5206840F4E050206061
:101590002878000703D5206840F460402060206868
:1015A000A96820F0F000084320602878C0072DD0FB
:1015B000304968680839012812D0022813D003285E
:1015C00011D00968890700292DDA216821F003016B
:1015D00001432160FFF784FC814641F2883A0EE026
:1015E00009688903EFE709688901ECE7FFF778FCF0
:1015F000A0EB0901514502D90320BDE8F08720681E
:10160000696800F00C00B0EB810FEFD1D8F8001042
:10161000404601F00701B14207D90770006800F0A9
:101620000700B04201D00120E7E72878400705D540
:101630002068E96820F4E05008432060287800071B
:1016400006D52068296920F4604040EAC100206086
:1016500000F038F82168084AC1F30311515CC84012
:101660000649086006480068FFF7FAFE0020C4E754
:10167000003C024008380240E63900081000002013
:10168000080000200448054900680968044AC1F3BD
:101690008221515CC8407047100000200838024089
:1016A000F63900080448054900680968044AC1F38E
:1016B0004231515CC8407047100000200838024099
:1016C000F6390008154810B5006810F00C021448EF
:1016D00013D01449042A0FD0082A0ED10F4C241F0E
:1016E0002268236802F03F025B0207D52068C0F33E
:1016F0008810A0FB010106E0084610BD2168C1F377
:101700008811A1FB00010023FEF7AEFD2168C1F3A3
:101710000141491C4900B0FBF1F010BD08380240FE
:101720000024F40040787D012DE9F84F04006ED0CC
:101730002078DFF84C93C007A9F104054AD009F1DD
:1017400004000168C1F38101012908D00068C0F3D9
:10175000810002280AD1D9F80000400206D5286885
:10176000800337D560680028E1D033E06068B0F5C9
:10177000803F10D0B0F5A02F286810D020F4803022
:101780002860286820F4802028606068A8B1FFF7EE
:10179000A7FB06460DE0286840F48030F4E740F4EB
:1017A00080202860F7E700BFFFF79AFB801B6428C2
:1017B00073D828688003F7D50CE0FFF791FB064645
:1017C00005E000BFFFF78CFB801B6428F0D8286879
:1017D0008003F7D42078DFF8AC8280074FF0000A4E
:1017E0003ED5A748001D016811F00C0F08D0006815
:1017F000C0F3810002280BD1D9F80000400207D4C1
:101800002868800716D5E068012800D112E033E18E
:10181000E068B8B10120C8F80000FFF761FB064698
:1018200005E000BFFFF75CFB801B0228C0D82868DA
:101830008007F7D52868216920F0F80040EAC10048
:1018400028600DE0C8F800A0FFF74AFB064604E058
:10185000FFF746FB801B02281FD828688007F7D4B3
:101860002078000722D5864F87486169703771B1AB
:1018700001210160FFF734FB064604E0FFF730FB6F
:10188000801B022809D838688007F7D50EE0C0F819
:1018900000A0FFF725FB064605E082E0FFF720FBEE
:1018A000801B02287DD838688007F7D4207840074D
:1018B00068D5DFF8CCB100270BF13C0BDBF800005A
:1018C000C0000BD4DBF8001041F08051CBF80010C1
:1018D000DBF80000012700F0805000906B4E30686C
:1018E000C00510D4306840F480703060FFF7F8FA1B
:1018F000009005E0FFF7F4FA0099401A022850D84A
:101900003068C005F6D55E4EA0686C3601280FD051
:101910000528306810D020F001003060306820F0D9
:1019200004003060A068B8B1FFF7DAFA00900FE069
:10193000306840F00100F4E740F004003060F7E761
:10194000FFF7CEFA0099411A41F28830814266D8F9
:1019500030688007F4D50EE0FFF7C2FA009007E088
:10196000FFF7BEFA0099411A41F28830814256D8F9
:1019700030688007F4D42FB1DBF8001021F08051DB
:10198000CBF80010A069C8B33D49091D0968C1F32F
:10199000810102294AD00228504607D0C8F86000C9
:1019A00000E03CE0FFF79CFA04463BE04746C8F8FD
:1019B0006000FFF795FA064605E000BFFFF790FAD2
:1019C000801B02282BD828688001F7D4D4E90701AE
:1019D0000843A16A2E4A490802EB0141626A41EAC2
:1019E0008211084394F82C1040EA0161C9F80010F4
:1019F00001203866FFF774FA044606E03EE000BFB7
:101A0000FFF76EFA001B022809D828688001F7D575
:101A100034E000BFFFF764FA001B022802D903205C
:101A2000BDE8F88F28688001F4D427E00128F7D0BA
:101A3000D9F80000E26900F4800191421CD1226AC9
:101A400000F03F01914217D147F6C071626A014030
:101A5000B1EB821F10D1A26A4FF0FF3300F4403186
:101A600003EB5202B1EB024F06D194F82C1000F0B8
:101A70007060B0EB016F01D00120D1E70020CFE70B
:101A80000438024000004742800E47420070004088
:101A90000000FFFF10B5401EB0F1807F01D3012090
:101AA00010BD4FF0E02460610F21601701F035FD9B
:101AB0000020A06107202061002010BD7047704702
:101AC00070B590F83C20012A32D0012480F83C40C7
:101AD000022280F83D2003685A689D6822F0700653
:101AE0000A6832435A60134B02689A4214D0B2F12A
:101AF000804F11D0104B9A420ED0104B9A420BD00F
:101B00000F4B9A4208D00F4B9A4205D00E4B9A4287
:101B100002D00E4B9A4204D1496825F08003194344
:101B2000916080F83D40002180F83C10084670BD6F
:101B3000022070BD00000140000400400008004089
:101B4000000C00400004014000400140001800402B
:101B500010B50446022249B104290ED0082913D039
:101B600094F84500012816D0012010BD94F84200D9
:101B70000128F9D184F842200FE094F843000128AD
:101B8000F2D184F8432008E094F844000128EBD116
:101B900084F8442001E084F845200422206801F004
:101BA0009CFA2068416C41F400414164114920686D
:101BB000884214D0B0F1804F11D00F4988420ED026
:101BC0000E4988420BD00E49884208D00D49884200
:101BD00005D00D49884202D00C49884204D1816861
:101BE00001F00701062903D0016841F001010160FD
:101BF000002010BD0000014000040040000800402B
:101C0000000C00400004014000400140001800406A
:101C100010B5040003D094F83D0010B107E0012096
:101C200010BD002084F83C00204600F01FF8022080
:101C300084F83D00211D206801F0DEF9012084F8C0
:101C4000460084F83E0084F83F0084F8400084F8A1
:101C5000410084F8420084F8430084F8440084F88A
:101C6000450084F83D00002010BD000008B5016863
:101C70001348814201D1134819E01248001FB1F105
:101C8000804F14D0104A914219D1016841F01001DF
:101C900001600068002200F010000090114636201C
:101CA000FFF724FCBDE808403620FFF711BC0168AF
:101CB00041F001010160006800F00100009008BDE2
:101CC00000000140443802400010004070B5044656
:101CD00090F83C000025012817D0012684F83C60CC
:101CE000022084F83D002068826822F0770222F406
:101CF0007F4282600868502838D00DDC20284FD001
:101D000005DC90B3102811D14AE0022070BD3028C4
:101D100046D040280AD13BE060282FD070280DD053
:101D2000B0F5805F03D0B0F5005F12D0012584F8D4
:101D30003D60002084F83C00284670BDCB68D1E9A6
:101D40000121206801F0D6F92068816841F077010F
:101D500009E0CB68D1E90121206801F0CBF92068C6
:101D6000816841F480418160E1E719E0CA6849680F
:101D7000206801F093FA5021206806E0CA6849689B
:101D8000206801F09CFA6021206801F0BDF9CEE7DF
:101D9000CA684968206801F081FA40212068F4E7A8
:101DA000226801461046F0E7704770B504460068A7
:101DB00001694FF00005C943890715D4C168C943BB
:101DC000890711D4E91E016101202077206880690C
:101DD0008007204602D0FFF7E7FF04E000F0BEF8DE
:101DE000204600F050F9257720680169C94349076A
:101DF00017D4C168C943490713D46FF004010161C6
:101E0000022020772068806910F4407F204602D0AD
:101E1000FFF7CAFF04E000F0A1F8204600F033F914
:101E2000257720680169C943090716D4C168C943E9
:101E3000090712D46FF0080101610420207720689F
:101E4000C0698007204602D0FFF7AEFF04E000F033
:101E500085F8204600F017F9257720680169C94305
:101E6000C90617D4C168C943C90613D46FF010015D
:101E70000161082020772068C06910F4407F204667
:101E800002D0FFF791FF04E000F068F8204600F070
:101E9000FAF8257720680169C943C90708D1C168E4
:101EA000C943C90704D1891E0161204600F050F9D9
:101EB00020680169C943090609D4C168C9430906F4
:101EC00005D46FF0800101612046FFF7F7FD20681F
:101ED0000169C943490609D4C168C943490605D403
:101EE0006FF040010161204600F040F9206801696F
:101EF000C94389060BD4C168C943890607D46FF06A
:101F0000200101612046BDE87040FFF7D8BD70BDDB
:101F100010B586B0044614216846FEF71CFA206806
:101F2000B0F1804F14D10B480021026842F0010249
:101F30000260006800F00100059002200090CDE9E9
:101F400001010120CDE9031069460348FEF7CAFEEE
:101F500006B010BD3038024000000240704770B536
:101F6000044690F83C0000260D4601280FD00120C1
:101F700084F83C006AB1042A1DD0082A2FD00C2A0C
:101F80003FD00126002084F83C00304670BD02207E
:101F900070BD206801F0C0F82068816941F0080137
:101FA00081612068816921F0040181612068816973
:101FB0002A69114311E0206801F0DEF82068816988
:101FC00041F4006181612068816921F4806181614F
:101FD000206881692A6941EA02218161D2E720688B
:101FE00001F000F92068C16941F00801C161206871
:101FF000C16921F00401C1612068C1692A691143E6
:1020000011E0206801F022F92068C16941F4006103
:10201000C1612068C16921F48061C1612068C16922
:102020002A6941EA0221C161ACE710B5040003D07E
:1020300094F83D0010B107E0012010BD002084F8A5
:102040003C00204600F01EF8022084F83D00211DCF
:10205000206800F0D1FF012084F8460084F83E009B
:1020600084F83F0084F8400084F8410084F842007E
:1020700084F8430084F8440084F8450084F83D0067
:10208000002010BD7047704710B50446022249B1C8
:1020900004290ED0082913D094F84100012816D045
:1020A000012010BD94F83E000128F9D184F83E20AB
:1020B0000FE094F83F000128F2D184F83F2008E0B7
:1020C00094F840000128EBD184F8402001E084F826
:1020D00041200122206800F0F3FF16492068164ACB
:1020E000884201D0904203D1436C43F400434364DF
:1020F0002068884213D0B0F1804F10D00F49884239
:102100000DD00F4988420AD00E49884207D090422C
:1021100005D00D49884202D00C49884204D181681B
:1021200001F00701062903D0016841F001010160B7
:10213000002010BD000001400004014000040040E8
:1021400000080040000C0040004001400018004022
:1021500010B500680449884205D101F07BFA41F2CC
:102160007071A0F8941110BD0010004070477047C6
:1021700070470000F8B5016804460868CA684B69F2
:1021800010F00F0F4FF0000559D003F0010602F4D4
:102190009077374365D0C10705D0D10503D5216CB1
:1021A00041F001012164410705D5D90703D0216C15
:1021B00041F002012164810705D5D90703D0216CC4
:1021C00041F004012164010707D502F020013143E9
:1021D00003D0216C41F008012164216C00293AD020
:1021E000800604D5900602D5204601F0A9F82068A3
:1021F0004069216CC0F38010090700D460B3204609
:1022000001F077F820684069400621D52068143035
:1022100050E8001F21F0400140E80012002AF5D1EB
:10222000A06BA8B16C490165A06BFEF737FD0028D3
:1022300011D0A06B016D01B0BDE8F04008478306E6
:102240000FD593060DD52046BDE8F84001F078B8CB
:102250002046FFF78DFFF8BD2046FFF789FF256474
:10226000F8BD266B2023012E79D1C60677D5D60678
:1022700075D50868486800904869400640D5A16B4C
:10228000086840680004000CEAD0A28D8242E7D9B9
:10229000E085C869B0F5807F2DD020680C3050E80B
:1022A000001F21F4807140E80012002AF5D1206857
:1022B000143050E8001F21F0010140E80012002A0C
:1022C000F5D12068143050E8001F21F0400140E8AB
:1022D0000012002AF5D184F83E30256320680C30C6
:1022E00050E8001F21F0100140E80012002AF5D14B
:1022F000A06BFEF78AFCA08DE18D401A81B229E027
:10230000A08DE18D401A81B2E08D0028A8D000296F
:10231000A6D020680C3050E8002F22F4907240E8DC
:102320000026002EF5D12068143050E8002F22F04E
:10233000010240E80026002EF5D184F83E302563E6
:1023400020680C3050E8002F22F0100240E80023F3
:10235000002BF5D12046FFF70AFFF8BDFFE7050681
:102360002BD5150629D594F83D002128F5D1A06874
:10237000B0F5805F01D12069B0B1206A411C2162B3
:10238000216800784860E08C401E0004000CE08466
:10239000E3D12068C16821F08001C1602068C16874
:1023A00041F04001C160D8E7206A0088C0F308000E
:1023B0004860206A801C2062E5E74006CDD55006C3
:1023C000CBD5CA68204622F04002CA6084F83D306E
:1023D00000F073F8C1E70000E332000870B50400B4
:1023E00004D094F83D00002510B106E0012070BD36
:1023F00084F83C50204600F023F8242084F83D0067
:102400002068C16821F40051C160204600F0F8FF47
:102410002068016921F4904101612068416921F03F
:102420002A0141612068C16841F40051C1602564FE
:10243000202084F83D0084F83E00002070BD00009C
:1024400010B586B0044614216846FDF784FF17498D
:102450002068884228D116480021026842F40032E0
:102460000260006800F400300590114810380268DE
:1024700042F001020260006800F0010005900C20AB
:1024800000900220CDE90101032003900720049071
:1024900069460848FEF726FC002211462620FFF771
:1024A00025F82620FFF714F806B010BD00440040C0
:1024B000403802400000024070477047FEE7016864
:1024C0004A69D24352050FD46FF480624A610021F9
:1024D00040F8301F202242738173026942F00402E7
:1024E0000261017301207047002070472DE9F84F09
:1024F0000446C06A1E4693460D4621680A6842F4A7
:1025000080620A60082807D0012805D010F5803FB6
:1025100002D0206B112804D12068016841F4807139
:1025200001604FF001195B460022494620460096A3
:1025300000F0C6F84FF4007840B120680068C0058C
:1025400001D5C4F840800320BDE8F88F2069DFF88A
:1025500084A0B0F5804F0FD00620216800EAD5177F
:1025600047F0F000086133465A460AF1060120465A
:1025700000F0DAF858BB03E0E8B240F001001CE0DC
:102580002168E8B2086133465A465146204600F0B9
:10259000CBF8E0B92068416981690091016841F494
:1025A000807101605B46002249462046009600F09B
:1025B00087F80028C1D147F0F1002168086133464F
:1025C0005A465146204600F0AFF80028BCD0012002
:1025D000BAE7000002000100F8B50446C06A1E46D2
:1025E0000D461746082807D0012805D010F5803F72
:1025F00002D0206B122804D12068016841F4807158
:102600000160134600224FF001112046009600F0B1
:1026100057F840B120680068C00502D54FF400703B
:1026200020640320F8BD2069B0F5804F0ED006204D
:10263000216800EAD51040F0F000086133463A46C0
:102640000B49204600F070F878B902E005F0FE0072
:1026500000E0E8B221680861054933463A46891F1F
:10266000204600F061F80028DCD00120F8BD000011
:102670000800010070B516460D4604460DE02046E0
:10268000FFF71DFF08B1012070BD681C05D0FEF7E3
:1026900027FC801BA84207D835B120684069C04399
:1026A0004007ECD4002070BD002044F8300F2021FA
:1026B0006173A073216941F0200121612073E2E779
:1026C0002DE9F0471E4690460D460446C1F30747E4
:1026D000DDF8209008E0701C06D0FEF701FCA0EBAE
:1026E0000900B0420FD876B12068012F18D0806958
:1026F00025EA00000004000C14D000214145EAD076
:102700000020BDE8F087002044F8300F20216173DD
:10271000A073216941F02001216120730120F0E7BD
:102720004069E5E70121E9E72DE9F0479A4691463E
:102730000E46044600254FF02008C1F3074725E068
:1027400020684069C043400514D42068016841F402
:102750000071016021686FF480604861256384F82E
:102760003D8084F83E50206C40F00400206484F8E2
:102770003C501FE0B9F1FF3F08D0FEF7B1FBA0EBE2
:102780000A0149450CD8B9F1000F09D02068012F82
:1027900013D0806926EA00000004000C0BD0CFE7BC
:1027A00044F8305F84F80D80A573206940F0200064
:1027B000206125730120BDE8F0874069EAE72DE933
:1027C000F041002590460E460446202717E0406958
:1027D000C043C0060CD454F8301B6FF010004861A1
:1027E00044F810596777A577206A2062257717E0AB
:1027F000FEF776FBA0EB0800B04208D83EB1206897
:102800004169C9434906E2D40020BDE8F08144F89B
:10281000305F6773A573206940F020002061257345
:102820000120F2E770B516460D4604460DE020463D
:10283000FFF745FE08B1012070BD681C05D0FEF70A
:102840004FFB801BA84207D835B120684069C043C0
:102850000006ECD4002070BD002044F8300F202189
:102860006173A073216941F0200121612073E2E7C7
:1028700010B52DED048B00F0EDFE044680213748A5
:1028800000F0C8F800F099FF9FED351B53EC112BB9
:1028900000F0A6FF00F064FF80B200F0D5FEA4F8BF
:1028A000E60080212D486A3400F08EF8B4EE008AEC
:1028B00020EE080ABDEEC00A10EE101AA4F880102F
:1028C000B4F87C0011FB00F000EE100ADFED268A60
:1028D0002248B8EEC00AC0EE280ABDEEE00A10EEAB
:1028E000101AA4F878108A2100F094F800F065FF1F
:1028F0009FED1E9B53EC192B00F072FF00F030FF90
:102900001C4908808A21154800F084F800F055FF22
:1029100053EC192B00F064FF00F022FF80B200F0AE
:1029200093FEA0808A210D4800F04EF820EE080AA0
:10293000BDEEC00A10EE101A2181A08811FB00F034
:1029400000EE100AB8EEC00AC0EE280ABDEEE00A9A
:1029500010EE101A2180BDEC048B10BD6C0000201D
:10296000000000000000E03F00007A44CDCCCCCC59
:10297000CCCCDC3F0000002070B54FF40044224670
:102980008A21104800F074F844F2DF452A468A2173
:102990000C4800F06DF822118A210A4800F058F81E
:1029A00022468021074800F063F82A468021054826
:1029B00000F05EF82246BDE870408021014800F03A
:1029C00047B800006C00002010B500F005F800EEDC
:1029D000100AB8EE400A10BDFEB506460CA00A2447
:1029E00000680D46CDE90040012301AA3046FEF7FC
:1029F00031FC022302AA294630460094FEF73AFB36
:102A000008B10020FEBDBDF8080040BAFEBD0000C0
:102A100002000000FEB506460CA00A2400680D4620
:102A2000CDE90040012301AA3046FEF713FC022342
:102A300002AA294630460094FEF71CFB08B100208C
:102A4000FEBDBDF8080040BAFEBD00000100000058
:102A50001CB505238DF80430130A8DF805308DF868
:102A600006200A220092032301AAFEF7F3FB1CBDF5
:102A70001CB500238DF80430130A8DF805308DF84D
:102A800006200A220092032301AAFEF7E3FB1CBDE5
:102A90000F4810B50D4901600321416000214FF43A
:102AA00010228160C0E903124FF4001242610176E6
:102AB00041768176C17601774177FDF76CFF00287A
:102AC00003D0BDE81040FDF7EABC10BD0064004033
:102AD0002C000020F0B587B014216846FDF73BFCC0
:102AE00027480024016841F080010160016801F07D
:102AF00080010591016841F004010160016801F065
:102B000004010591016841F001010160016801F0D3
:102B100001010591016841F0020101600068194E50
:102B200000F002000590012202213046FEF7D2F9A2
:102B3000154F012211463846FEF7CCF900224FF41A
:102B4000C0713846FEF7C6F9002240213046FEF734
:102B5000C1F942200125CDE9000502200290039031
:102B600069463046FEF7BEF840F281100090CDE98C
:102B70000154694638460394FEF7B4F807B0F0BD37
:102B80003038024000080240000002400D4810B5F5
:102B90000B4901600C49416000214FF48042816083
:102BA000C0E9031241618161C1610162FEF79EF9D2
:102BB000002803D0BDE81040FDF771BC10BD000037
:102BC000005400406C000020801A06000D4810B52B
:102BD0000B4901600C49416000214FF48042816043
:102BE000C0E9031241618161C1610162FEF77EF9B2
:102BF000002803D0BDE81040FDF751BC10BD000017
:102C000000580040C0000020801A060010B586B0B1
:102C100000241748009401940294039404941349E7
:102C2000059401602921C0E9011440F2CF71C0E987
:102C3000031444618461FEF7EBFF08B1FDF72FFC3C
:102C40004FF48050009069460948FFF73FF808B1FB
:102C5000FDF725FC049404A905480594FEF730FF10
:102C6000002801D0FDF71BFC06B010BD000001409C
:102C70001401002010B58EB0002407940894099424
:102C80000A940B941C2168460C94FDF764FB1D48C4
:102C90004FF08041C0E9001440F24731C0E90241E1
:102CA00004618461FEF7B4FF08B1FDF7F8FB4FF44F
:102CB0008050079007A91348FFF708F808B1FDF7FF
:102CC000EEFB1048FFF7B1F908B1FDF7E8FB0B94F4
:102CD0000BA90C480C94FEF7F3FE08B1FDF7DFFBDF
:102CE0006020CDE90004029404226946054804945A
:102CF000FFF735F908B1FDF7D2FB0248FFF708F9F5
:102D00000EB010BD5C0100201CB500240F480094DB
:102D10000D490194016042F2CF01C0E901144CF267
:102D20004F318461C160FEF773FF08B1FDF7B7FB57
:102D30000094694605480194FEF7C2FE002801D0C0
:102D4000FDF7ADFB1CBD000000100040A4010020F9
:102D50000C4810B50A4901604FF4E131416000218F
:102D600081600C22C160C0E904128161C161FFF77A
:102D700035FB002803D0BDE81040FDF790BB10BD27
:102D800000440040EC010020FEE7FEE710B5002102
:102D90001048FFF779F904210E48FFF775F9002173
:102DA0000C48FEF7D5FE04210A48FEF7D1FE0421A7
:102DB0000948FFF769F904210748FEF7C9FE012019
:102DC0008107886300F046FC41F29411A0F8941149
:102DD00010BD00005C0100201401002070470000BD
:102DE00070B500F071FC00F003FC00F0E7FB4D4C07
:102DF000B4F9940100EE100AB4F99201F8EEC00A99
:102E000000EE100AB8EEC01A9FED470AB4F9E200CE
:102E1000464D41EE000A01EE100AB8EEC11A70EEFE
:102E2000C10AB2EE001A20EE800A85ED030ADFED3A
:102E3000400A683400F0F0FB85ED030AB4F90000A5
:102E4000002100EE900AF8EEE00A30EE800ABDEEB6
:102E5000C00A10EE100A2080B4F82C01A0F56170B1
:102E600082B2208800F0E8FB00B224F80A0B40F29E
:102E70004E2134F972298A4210DA00BFB4F96E107B
:102E800042F22832A2EB010100EE101ADFED290A0E
:102E9000B8EEC00A20EE200A85ED020A0DDBB4F977
:102EA0006A10DFED250AA0EB010000EE100AB8EE73
:102EB000C00A20EE200A85ED020AB0EE081AF9EEEB
:102EC0000C0A95ED020A00F0A7FB85ED020A34F921
:102ED000740F40F6C46200EE900A0021F8EEE00A9A
:102EE00030EE800ABDEEC00A10EE100A208080B2DB
:102EF00000F0A2FB24F8760B34F9EA09642808DA1A
:102F0000B4F89401A0F56170A4F868000120A4F859
:102F10007400B4F97400052190FBF1F0890788630F
:102F200070BD0000300200200AD7233C14000020AE
:102F3000000020C2295C8F3D3333333F7047FEF7DA
:102F40006DBA000030B593B030216846FDF703FA42
:102F500014210CA8FDF7FFF91E480025016841F077
:102F600080510160006800F0805011901A4801689B
:102F700041F4804101600068022400F48040119017
:102F800001200090000401908001CDE90640192045
:102F900008904FF4A870CDE9090404200B9068460E
:102FA000FEF7C2FB08B172B6FEE70CA90F2081E85C
:102FB00031004FF4A0500F904FF480501090052135
:102FC0000CA8FEF7C5FA002801D072B6FEE713B0D0
:102FD00030BD0000403802400070004002480168E7
:102FE00041F470010160704788ED00E00148FEF790
:102FF000DCBE0000A4010020F0B50268254C264D7F
:10300000264E274F274B4FF0804CA04209D06045F9
:1030100007D0A84205D0B04203D0B84201D09842B0
:1030200004D122F0700E4A6842EA0E02A0421BD080
:10303000604519D0A84217D0B04215D0B84213D07D
:10304000984211D0184DA8420ED0184DA8420BD06E
:10305000174DA84208D0174DA84205D0164DA842DA
:1030600002D0164DA84203D122F44075CA682A4303
:103070004D6922F080022A4302608A68C2620A68AF
:103080008262A04201D0984201D109690163012105
:103090004161F0BD00000140000400400008004014
:1030A000000C004000040140004001400044014089
:1030B0000048014000180040001C00400020004073
:1030C00010B501F01F030121046A99408C4304628A
:1030D000016A9A401143016210BD10B501F01F034F
:1030E0000421046A99408C430462016A9A401143A6
:1030F000016210BD10B5846842EA032224F47F44C3
:103100000A432243826010BD826822F070020A43A3
:1031100042F0070181607047F0B5026A22F00102B7
:103120000262036A42688469124E24F073050C68D7
:103130002C4323F002058B682B430D4DA84201D090
:10314000B04205D123F00807CB683B4323F00403CA
:10315000A84201D0B04205D14D6922F44072154316
:103160008A692A4342608461496841630362F0BD11
:103170000000014000040140F0B5026A22F0100294
:103180000262026A436884690D6824F4E64444EAF2
:1031900005248D6822F0200242EA05120F4D104EE0
:1031A000A84201D0B04206D1CF6822F0800242EAA4
:1031B000071222F04002A84201D0B04207D14D6967
:1031C00023F4406343EA85038D6943EA8503436042
:1031D0008461496881630262F0BD00000000014023
:1031E00000040140F0B5026A22F480720262026AB1
:1031F0004368C46922F4007224F073050C68124E0F
:103200002C438D6842EA05220E4DA84201D0B042FF
:1032100006D1CF6822F4006242EA072222F48062DB
:10322000A84201D0B04207D14D6923F4405343EA8C
:1032300005138D6943EA05134360C4614968C1639E
:103240000262F0BD000001400004014030B5026A96
:1032500022F480520262046A4268C3690D6823F452
:10326000E64343EA05238D6824F4005444EA053418
:10327000084DA84202D0084DA84204D14D6922F45D
:10328000804242EA85124260C36149680164046277
:1032900030BD0000000001400004014010B5036A89
:1032A000046A24F001040462846924F0F00444EA0E
:1032B000021423F00A020A438461026210BD10B5B1
:1032C000036A23F0100303628369046A23F47043E2
:1032D00043EA023224F0A00343EA01118261016251
:1032E00010BD10B5806B0021C185C184FEF740FF81
:1032F00010BD01680C3151E8002F22F4907241E8B2
:103300000023002BF5D10168143151E8002F22F081
:10331000010241E80023002BF5D1016B012909D1FD
:1033200001680C3151E8002F22F0100241E800231F
:10333000002BF5D1202180F83E1000210163704759
:1033400008B590F83E10222901D0022008BD8268FD
:103350004FF480539A4201D1016921B1816A9A42A6
:103360001BD04AB10AE00268816A5268C2F30802BF
:103370000A80816A891C08E0026972B10268526899
:1033800002F07F020A70816A491C8162C18D491E68
:103390000904090CC18503D019E002685268F1E7FD
:1033A0000168CA6822F02002CA600168CA6822F473
:1033B0008072CA6001684A6922F001024A612021D4
:1033C00080F83E10016B012903D0FFF775F800204B
:1033D00008BD0021016301680C3151E8002F22F083
:1033E000100241E80023002BF5D101680A68D206DB
:1033F00002D50A6849680091818DFEF7B8FEE6E7BC
:1034000070B5044600680169E26821F44051114337
:1034100001612169A068E2690843616911430843B9
:103420002168CA6849F20C639A430243CA60206863
:103430004169A26921F44071114341613149206819
:10344000884202D03049884202D1FEF72BF901E0D0
:10345000FEF718F9E2690023192164253226B2F536
:10346000004F626828D0A0FB0101930F9200FCF787
:10347000FBFE0146B0FBF5F06FF01802504301EB84
:10348000800006EB0010B0FBF5F000F0F002B1FB9D
:10349000F5F002EB0012B1FBF5F06FF018035843A2
:1034A00001EB800006EB0010B0FBF5F000F00F0020
:1034B00021681044886070BDA0FB010192185B4137
:1034C000FCF7D2FE0146B0FBF5F00201B1FBF5F0CE
:1034D0006FF01803584301EB800006EBC000B0FB0F
:1034E000F5F000F0F80002EB4002B1FBF5F05843B4
:1034F00001EB800006EBC000B0FBF5F000F0070028
:10350000D6E7000000100140001401400148FEF71A
:1035100031BE0000EC010020FEE70907090E00287B
:1035200004DB00F1E02080F80014704700F00F0089
:1035300000F1E02080F8141D704700000D4810B520
:103540000178012915D1002101700B4C0A464FF476
:1035500080712046FDF7BEFC0120FDF7B1FB012282
:1035600080212046FDF7B6FCBDE810400120FDF7A4
:10357000A7BB10BD14000020000002400D4810B58C
:103580000178002914D1012101700B4C0022802107
:103590002046FDF79FFC0120FDF792FB012211025E
:1035A0002046FDF797FCBDE810400120FDF788BBE1
:1035B00010BD0000140000200000024010B50B4CAC
:1035C00094F8960108B101280BD0FFF7D7FF00BF90
:1035D000B4F97200B0F5487F06DABDE81040FFF795
:1035E000ADBFFFF7ABFFF3E710BD000030020020D6
:1035F0000749084891F896210270B1F872100A0A3A
:1036000042708170014640F21120FCF733BF000088
:103610003002002024000020B4EEE00AF1EE10FA9F
:1036200002D2B0EE600A7047B4EEC10AF1EE10FAB1
:10363000F9DDB0EE410A7047884201D20846704772
:103640009042FCD91046704744F62061884200D968
:10365000002070470048704730020020FDF7E6FE6A
:10366000FFF770FCFFF736FAFFF712FAFFF78EFA52
:10367000FFF7CCFAFFF76CFBFFF7FCFAFFF7A6FAAF
:10368000FFF742FBFFF782FB0948FDF779FEFCF7E5
:10369000C7FEFFF771F9012211460648FDF71AFC33
:1036A000FFF7E6F8FFF79CFB0520FDF709FBF7E7BE
:1036B0006C00002000000240C0ED061A80ED052AD3
:1036C00080EC030A7047000010B522482DED028BF4
:1036D0009FED1E8ADFED1E8AB0EE482AF0EE481AF2
:1036E000B0EE481AF0EE480AB0EE680AFFF7E4FFC1
:1036F0001848B0EE482AF0EE481AB0EE481AF0EE3C
:10370000480AB0EE680A3438FFF7D6FF1148B0EE29
:10371000482AF0EE481AB0EE481AF0EE480A9FED3B
:103720000E0A3430FFF7C8FFB0EE482AF0EE481A10
:10373000B0EE481ABDEC028BB0EE000A0548BDE8B9
:103740001040DFED060AF038FFF7B6BF00000000BA
:10375000CDCC4C3D540300200AD7A33BCDCC4C3EEE
:103760004FEA1153A3F58063D3F11E03A8BFD3F131
:10377000200C08DB4FF0004242EAC12252EA5052CC
:1037800032FA03F0704709420BD4102BC4BF00205B
:10379000704703F5787CBCF1FF3F05D04FF0FF3058
:1037A00070474FF00000704770B500F0C3F800BFDD
:1037B0004992248000207047F0E7B0FA80F310FAB5
:1037C00003F10AD0C3F11D0303F580634FEA4150B2
:1037D0004FEA035202EBD12170474FF000007047CF
:1037E000DFF848C170B51CEA111E1EBF1CEA131594
:1037F0009EEA0C0F95EA0C0F00F06F8081EA03043B
:1038000023EA4C134EEAD47E21EA4C1141F4801194
:1038100043F48013AE44A1FB024CA0FB0365AEF160
:103820007F7E361955EB0C05A1FB034C4CF10003D0
:10383000A0FB021C16EB0C06654153F10003094284
:1038400018BF46F0010613F4007F0BD14FEA033195
:103850004FEA0530340341EA155140EA16506FF043
:1038600003020AE04FEAC3214FEAC520F40241EA0D
:10387000555140EA56506FF0020202EB2E4201EB26
:10388000025585EACE710AD05FEA440C18BF24F0D5
:10389000004450F1000041F1000120EAD47040F2F0
:1038A000FE7C624500D270BDA84214BF4FF0804438
:1038B0004FF04044002E08BF0024BEF1806FA8BF27
:1038C000A1F1C041BDE8704080F282804FF000005D
:1038D00001F1C04101F0004170479EEA0C0F0CEA73
:1038E000131518BF95EA0C0F06D04FF0000081EABF
:1038F000030E0EF0004170BD00F01CF88900013E7F
:1039000000F007B800F009B84FEA430C5FEA5C5CCE
:1039100008D081EA030100F05BB84FEA410C5FEA8E
:103920005C5CF6D14FF00000014970470000FF07D2
:103930000000F87F0EF1020E2EF0030E5EF8046B0D
:10394000364205D4012A43EB030515F5001F12D8B2
:10395000012841EB010C1CF5001F0CD80ED14FEAD9
:10396000D17C15F5001F0CEB4C0C0CF1020C08BFC0
:103970004CEBD37C04E04FF0080C01E04FEAD37C21
:103980000CEB4C0526FA05F606F00706B6F1040C1A
:1039900006D20EEB860CBDE870404CF0010C60477F
:1039A000DFE80CF0090B02024FF000414FF000007D
:1039B000A1F5002170BD19461046012851EB010404
:1039C00018BFD4F5001484BF002001F0004170BD81
:1039D0000808A0F500114FEA310170474FF0407020
:1039E000E1EE100A70470000000000000000010234
:1039F0000304060708090000000001020304000098
:103A0000203A0008000000202C000000C40100083B
:103A10004C3A00082C000020FC090000E0010008DE
:103A20000000000001000000100000000000000085
:103A30000024F4000000010000000040000000002D
:0C3A40000000000000000000000000007A
:040000050800018965
:00000001FF
